{
  "contractName": "IOTPool",
  "abi": [
    {
      "constant": true,
      "inputs": [],
      "name": "tokenContract",
      "outputs": [
        {
          "name": "",
          "type": "address"
        }
      ],
      "payable": false,
      "stateMutability": "view",
      "type": "function"
    },
    {
      "constant": true,
      "inputs": [],
      "name": "tokenPrice",
      "outputs": [
        {
          "name": "",
          "type": "uint256"
        }
      ],
      "payable": false,
      "stateMutability": "view",
      "type": "function"
    },
    {
      "constant": true,
      "inputs": [
        {
          "name": "",
          "type": "address"
        },
        {
          "name": "",
          "type": "uint256"
        },
        {
          "name": "",
          "type": "uint256"
        }
      ],
      "name": "Pool",
      "outputs": [
        {
          "name": "block_number",
          "type": "uint256"
        },
        {
          "name": "hash_code",
          "type": "bytes32"
        },
        {
          "name": "timestamps",
          "type": "uint256"
        }
      ],
      "payable": false,
      "stateMutability": "view",
      "type": "function"
    },
    {
      "inputs": [
        {
          "name": "_tokenContract",
          "type": "address"
        },
        {
          "name": "_tokenPrice",
          "type": "uint256"
        }
      ],
      "payable": false,
      "stateMutability": "nonpayable",
      "type": "constructor"
    },
    {
      "anonymous": false,
      "inputs": [
        {
          "indexed": false,
          "name": "_device",
          "type": "address"
        }
      ],
      "name": "Access_Granted",
      "type": "event"
    },
    {
      "anonymous": false,
      "inputs": [
        {
          "indexed": false,
          "name": "_from",
          "type": "address"
        },
        {
          "indexed": false,
          "name": "_to",
          "type": "address"
        },
        {
          "indexed": false,
          "name": "_amount",
          "type": "uint256"
        }
      ],
      "name": "Token_Transfer",
      "type": "event"
    },
    {
      "constant": false,
      "inputs": [],
      "name": "initiate_session",
      "outputs": [],
      "payable": false,
      "stateMutability": "nonpayable",
      "type": "function"
    },
    {
      "constant": false,
      "inputs": [
        {
          "name": "incentive",
          "type": "uint256"
        }
      ],
      "name": "terminate_session",
      "outputs": [],
      "payable": false,
      "stateMutability": "nonpayable",
      "type": "function"
    }
  ],
  "bytecode": "0x608060405234801561001057600080fd5b5060405160408061079c8339810180604052604081101561003057600080fd5b81019080805190602001909291908051906020019092919050505033600160006101000a81548173ffffffffffffffffffffffffffffffffffffffff021916908373ffffffffffffffffffffffffffffffffffffffff16021790555081600360006101000a81548173ffffffffffffffffffffffffffffffffffffffff021916908373ffffffffffffffffffffffffffffffffffffffff1602179055508060028190555050506106b7806100e56000396000f3fe608060405234801561001057600080fd5b50600436106100575760003560e01c80631d3895e21461005c57806355a373d61461008a5780637ff9b596146100d45780639491829b146100f2578063b5c2a6d21461016c575b600080fd5b6100886004803603602081101561007257600080fd5b8101908080359060200190929190505050610176565b005b61009261045c565b604051808273ffffffffffffffffffffffffffffffffffffffff1673ffffffffffffffffffffffffffffffffffffffff16815260200191505060405180910390f35b6100dc610482565b6040518082815260200191505060405180910390f35b6101486004803603606081101561010857600080fd5b81019080803573ffffffffffffffffffffffffffffffffffffffff1690602001909291908035906020019092919080359060200190929190505050610488565b60405180848152602001838152602001828152602001935050505060405180910390f35b6101746104d9565b005b6000803373ffffffffffffffffffffffffffffffffffffffff1673ffffffffffffffffffffffffffffffffffffffff1681526020019081526020016000206000600281526020019081526020016000206040518060600160405280438152602001434081526020014281525090806001815401808255809150509060018203906000526020600020906003020160009091929091909150600082015181600001556020820151816001015560408201518160020155505050600360009054906101000a900473ffffffffffffffffffffffffffffffffffffffff1673ffffffffffffffffffffffffffffffffffffffff1663a9059cbb336102786005856105f6565b6040518363ffffffff1660e01b8152600401808373ffffffffffffffffffffffffffffffffffffffff1673ffffffffffffffffffffffffffffffffffffffff16815260200182815260200192505050602060405180830381600087803b1580156102e157600080fd5b505af11580156102f5573d6000803e3d6000fd5b505050506040513d602081101561030b57600080fd5b810190808051906020019092919050505061038e576040517f08c379a000000000000000000000000000000000000000000000000000000000815260040180806020018281038252600e8152602001807f746f6b656e207472616e7366657200000000000000000000000000000000000081525060200191505060405180910390fd5b7f38f24526a24579e1b42162b0013249c22732a9e92dc1cead42e9d8ba6574b8ee600360009054906101000a900473ffffffffffffffffffffffffffffffffffffffff16336103de6005856105f6565b604051808473ffffffffffffffffffffffffffffffffffffffff1673ffffffffffffffffffffffffffffffffffffffff1681526020018373ffffffffffffffffffffffffffffffffffffffff1673ffffffffffffffffffffffffffffffffffffffff168152602001828152602001935050505060405180910390a150565b600360009054906101000a900473ffffffffffffffffffffffffffffffffffffffff1681565b60025481565b600060205282600052604060002060205281600052604060002081815481106104ad57fe5b906000526020600020906003020160009250925050508060000154908060010154908060020154905083565b6000803373ffffffffffffffffffffffffffffffffffffffff1673ffffffffffffffffffffffffffffffffffffffff16815260200190815260200160002060006001815260200190815260200160002060405180606001604052804381526020014340815260200142815250908060018154018082558091505090600182039060005260206000209060030201600090919290919091506000820151816000015560208201518160010155604082015181600201555050507f33a29f8dfabdaa722dd5da5e7ec1454c228ddc210391246578ff52588953c2fe33604051808273ffffffffffffffffffffffffffffffffffffffff1673ffffffffffffffffffffffffffffffffffffffff16815260200191505060405180910390a1565b600080821480610613575082828385029250828161061057fe5b04145b610685576040517f08c379a00000000000000000000000000000000000000000000000000000000081526004018080602001828103825260178152602001807f6572726f7220696e206d756c7469706c69636174696f6e00000000000000000081525060200191505060405180910390fd5b9291505056fea165627a7a7230582001deeaecdb54ea3e306ac1dee7f4747c87a5c31b213d2cdbb6fa152cb3617d270029",
  "source": "pragma solidity >=0.4.21 <0.6.0;\r\nimport \"./ERC20.sol\";\r\n\r\ncontract IOTPool{\r\n\r\n    struct Origin{\r\n        uint256 block_number;\r\n        bytes32 hash_code;\r\n        uint256 timestamps;\r\n    }\r\n\r\n    mapping(address => mapping(uint256 => Origin[])) public Pool;\r\n    \r\n    address admin;\r\n    uint256 public tokenPrice;\r\n    ERC20 public tokenContract;\r\n    \r\n    event Access_Granted(address _device);\r\n    event Token_Transfer(address _from,address _to, uint256 _amount);\r\n\r\n    constructor(ERC20  _tokenContract, uint256 _tokenPrice) public{\r\n        admin = msg.sender;\r\n        tokenContract = _tokenContract;\r\n        tokenPrice = _tokenPrice;\r\n    }\r\n\r\n    function initiate_session()public{\r\n      \r\n        Pool[msg.sender][1].push(Origin(uint(block.number),bytes32(blockhash(block.number)),uint(block.timestamp)));\r\n\r\n        emit Access_Granted(msg.sender);\r\n    }\r\n\r\n    function multiply(uint x, uint y) internal pure returns (uint z) {\r\n        require(y == 0 || (z = x * y) / y == x,'error in multiplication');\r\n    }\r\n\r\n    function terminate_session(uint256 incentive) public{\r\n        Pool[msg.sender][2].push(Origin(uint(block.number),bytes32(blockhash(block.number)),uint(block.timestamp)));\r\n\r\n        require(tokenContract.transfer(msg.sender, multiply(5,incentive)),'token transfer');\r\n\r\n        emit Token_Transfer(address(tokenContract),msg.sender,multiply(5,incentive));\r\n    }\r\n}",
  "sourcePath": "/Users/safiurrehman/Downloads/fyp-website-int/contracts/IOTPool.sol",
  "compiler": {
    "name": "solc",
    "version": "0.5.8+commit.23d335f2.Emscripten.clang"
  },
  "schemaVersion": "3.0.17",
  "updatedAt": "2019-11-05T17:18:14.070Z",
  "networkType": "ethereum",
  "devdoc": {
    "methods": {}
  },
  "userdoc": {
    "methods": {}
  }
}